:100000000C942A000C943F000C943F000C943F0089
:100010000C943F000C943F000C943F000C943F0064
:100020000C943F000C943F000C943F000C943F0054
:100030000C943F000C943F000C943F000C943F0044
:100040000C943F000C943F000C943F000C943F0034
:100050000C943F0011241FBECFE5D4E0DEBFCDBF1E
:1000600010E0A0E6B0E0ECE7F2E002C005900D92EF
:10007000A239B107D9F70E9441000C943C010C94BD
:1000800000000E947D0080E062E040E650E00E94B7
:10009000C60081E063E04EE650E00E94C60080E4C6
:1000A0009CE929E130E0F9013197F1F70197D9F79F
:1000B0000E94D1008AE790E00E94A00081E065E004
:1000C00049E850E00E94C60088E090E00E94D50018
:1000D000FFCF949895982AEF30E0F9013197F1F726
:1000E000969AF9013197F1F785BBC9010197F1F7AC
:1000F0009698C9010197F1F708958FEF84BB81B3FA
:10010000806781BB88E30E9469008CE00E946900DF
:1001100081E00E9469000895949A95982AEF30E052
:10012000F9013197F1F7969AF9013197F1F785BB0B
:10013000C9010197F1F79698C9010197F1F7089560
:100140001F93CF93DF93EC0110E003C00E948C005B
:100150001F5FFE01E10FF11D80818823B9F7DF9158
:10016000CF911F910895813039F0813050F0823065
:1001700029F0833031F404C0605C03C0605F01C0CB
:10018000605B862F80680E94690008950F931F931B
:100190008A010E94B300C8010E94A0001F910F9124
:1001A000089581E00E94690008950F931F93DF93E3
:1001B000CF93CDB7DEB760970FB6F894DEBF0FBE12
:1001C000CDBF8E010F5F1F4FB8014AE050E00E9483
:1001D000F700C8010E94A00060960FB6F894DEBF39
:1001E0000FBECDBFCF91DF911F910F910895FB01FD
:1001F0009F01E8944230C4F04532B4F44A3029F407
:1002000097FB1EF4909581959F4F642F77270E944E
:100210002801805D8A330CF0895D8193CB010097C2
:10022000A1F716F45DE251931082C9010C941801F4
:10023000DC01FC01672F71917723E1F7329704C04D
:100240007C916D9370836291AE17BF07C8F30895D8
:10025000AA1BBB1B51E107C0AA1FBB1FA617B707EC
:1002600010F0A61BB70B881F991F5A95A9F7809508
:0C0270009095BC01CD010895F894FFCFDB
:10027C004D79204C43442044726976657200456D7B
:10028C0062656464656420575300496E74657266D8
:10029C002E20436F757273650047726F757020382E
:0202AC00000050
:00000001FF
